:020000040800F2
:10000000500D0020B9010008FB200008351700083A
:10001000F920000831170008F52200080000000050
:10002000000000000000000000000000B5210008F2
:100030003317000800000000FD200008B721000869
:10004000D3010008D3010008D3010008D301000840
:10005000D3010008D3010008D3010008D301000830
:10006000D3010008D3010008D3010008D301000820
:10007000D3010008D3010008D3010008D301000810
:10008000D3010008D3010008D3010008D301000800
:10009000D3010008D3010008D3010008D3010008F0
:1000A000D3010008D3010008D3010008D3010008E0
:1000B000D3010008D3010008D3010008D3010008D0
:1000C000D3010008D3010008D3010008D3010008C0
:1000D000D301000859220008D3010008D301000809
:1000E000D3010008D3010008D301000800F002F892
:1000F00000F053F80AA090E8000C82448344AAF16F
:100100000107DA4501D100F048F8AFF2090EBAE86C
:100110000F0013F0010F18BFFB1A43F0010318473B
:10012000502A0000702A0000103A24BF78C878C115
:10013000FAD8520724BF30C830C144BF04680C60ED
:10014000704700000023002400250026103A28BF35
:1001500078C1FBD8520728BF30C148BF0B60704739
:10016000642900F0C780732900F09F830020704746
:100170001FB59DE8030001F073F901F055F9040083
:100180000020002102F076FC401C606000F0BEFE02
:100190001FBD10B500F023FF10BD00F071FF114628
:1001A000FFF7E6FF02F090F901F026F903B4FFF73C
:1001B000F0FF03BC01F026FA0948804709480047D0
:1001C000FEE7FEE7FEE7FEE7FEE7FEE7FEE7FEE707
:1001D000FEE7FEE704480549054A064B7047000064
:1001E00055220008ED00000850070020500D0020A7
:1001F00050090020500900200FB4044910B503AA8B
:10020000029800F057FB10BC5DF814FB4806002074
:100210000FB41CB5074B06AA7B44694600900598AD
:1002200000F019FB0020694600F028FB1CBC5DF8BB
:1002300014FB0000610600002DE9F0410E46044663
:10024000002020622046E168884730B3252805D089
:10025000D4E901219047206A401CF2E7E16820467A
:1002600000278847050018D0A5F14100192802D8B9
:1002700020354FF400673246294620462760FFF7B5
:100280006FFF40B1012804D0F61D26F0070608369E
:10029000D8E7361DD6E72846DAE7206ABDE8F081C0
:1002A00070B50C460546012A05D02878800600D591
:1002B000EA69002302E0012305E05B1C934202D2BD
:1002C000E05C0028F9D1A869E618C01AA861286A7C
:1002D000184428622846AFF3008004E0D5E90121E4
:1002E00014F8010B9047B442F8D32846AFF30080CE
:1002F00070BD00002DE9F041064600241068752904
:10030000314616A510D0AFF30080002802DA404233
:1003100013A507E031688A0701D512A502E0490755
:1003200004D511A5012401E0AFF3008000210A22C9
:1003300006F1240709E0B0FBF2FCB0FBF2F302FB8C
:100340001C00303078541846491C0028F3D123464D
:100350002A463046BDE8F04100F01FBA0000000018
:100360002D0000002B000000200000000FB400B59D
:100370008DB010A9099000910B904FF0FF300A90BA
:1003800000200C90064878440690064878446A4657
:1003900007900F9909A800F0B3FA0DB05DF814FBAF
:1003A00097050000AF0500002DE9FF5F1D464FF0E7
:1003B000FF3B91464FF000085F46D5E90146A96929
:1003C00001987F1C8847296A824688470028F6D111
:1003D000BAF1FF3F0CD0002E24F4C06419DD600692
:1003E00014D5BAF12B0F09D0BAF12D0F0ED103E0BD
:1003F000584604B0BDE8F09F44F48064A9690198B0
:100400007F1C8847761E8246002E02DDBAF1300F2F
:1004100003D0B9F1000F26D032E0A969761E019809
:100420007F1C44F400748847002E824605DDBAF133
:10043000780F06D0BAF1580F03D0B9F1000F10D0E1
:100440001EE0B9F1000F02D0B9F1100F18D1A9695F
:10045000761E01987F1C24F4007488478246102081
:1004600002E0082000E00A20814609E0A96908FBB3
:100470000908761E01987F1C44F400748847824660
:10048000002E05DD4946504600F026FA0028EDDA38
:10049000E96901988847A00502D46FF00100A8E738
:1004A000E00725D1600613D5600502D5C8F100002C
:1004B00000E0404629680A1D2A600968220501D526
:1004C000087015E0220701D5088011E008600FE0F0
:1004D0002868011D29600068210502D580F8008088
:1004E00006E0210702D5A0F8008001E0C0F80080F6
:1004F00038467EE710B5044603E001F0D7FF401C04
:1005000009D014F8010B05490028F6D1BDE81040C8
:100510000A2001F0CBBF4FF0FF3010BD480600208D
:10052000014A00F01DBA0000DC00002040EA01038F
:10053000024630B59B0710D14FF0013400E008C2ED
:1005400008C91D1B9D4315EAC41FF8D013F0FF0115
:1005500002F8011B0DD01B0AF8E711F8013B002B34
:1005600002F8013B05D011F8013B002B02F8013BDA
:10057000F3D130BD10B5431C02E010F8011B71B17E
:100580008107FAD14FF0013202C88C1A8C4314EA69
:10059000C211F9D0C01A0A0603D0C01E10BDC01A7D
:1005A00010BD0A0401D0801E10BD0902FCD0401EFF
:1005B00010BD40EA010370B59B072ED14FF0013604
:1005C000042A2AD308C810C99D1B9D43121F15EA8F
:1005D000C61517D0D8B2E1B2401A50EA056110D161
:1005E00098B2A1B2401A50EA05410AD123F07F40E7
:1005F00024F07F41401A50EA052102D1180EA0EBE9
:10060000146070BDA342DBD018BA21BA884201D968
:10061000012070BD4FF0FF3070BD0AB9002070BDE1
:1006200010F8013B11F8014B63B1A3420AD1521EED
:1006300008D010F8013B11F8014B1BB1A34201D1C6
:10064000521EEDD1181B70BD421E12F8013F002B47
:10065000FBD111F8013B002B02F8013BF9D17047A7
:1006600010B5203AC0F00B80B1E81850203AA0E84D
:100670001850B1E81850A0E81850BFF4F5AF5FEA81
:10068000027C24BFB1E81850A0E8185044BF18C934
:1006900018C0BDE810405FEA827C24BF51F8043BDB
:1006A00040F8043B08BF7047D20728BF31F8023B2F
:1006B00048BF11F8012B28BF20F8023B48BF00F8C3
:1006C000012B70474FF0000200B513469446964642
:1006D000203922BFA0E80C50A0E80C50B1F1200155
:1006E000BFF4F7AF090728BFA0E80C5048BF0CC003
:1006F0005DF804EB890028BF40F8042B08BF704761
:1007000048BF20F8022B11F0804F18BF00F8012BD2
:10071000704700004FF0013C50F8042B51F8043BA7
:100720009A4221D1A2EB0C03934313EACC1317D1C5
:1007300050F8042B51F8043B9A4215D1A2EB0C035C
:10074000934313EACC130BD150F8042B51F8043B1C
:100750009A4209D1A2EB0C03934313EACC13DBD0EA
:100760004FF00000704700BFD01A01BAB1FA81F112
:1007700001F0180122FA01F0CB40C1F12001DBB2F7
:10078000C0B2C01A2CFA01F3D11A914311EAC31175
:10079000E6D170477047704770472DE9F0470D4626
:1007A00099469246044600F124080168880604D55B
:1007B000E06921F01001216000E00120A84201DD84
:1007C000471B00E00027A1697A1902EB0900081A0B
:1007D000A0612078C00602D42046AFF30080002636
:1007E00008E0D4E901211AF806009047206A401C6D
:1007F000761C20624E45F4DB2078C0060AD52046E0
:10080000AFF3008006E0D4E9012130209047206A50
:10081000401C2062381EA7F10107F4DC07E0D4E990
:10082000012118F805009047206A401C2062281E0C
:10083000A5F10105F3DC2046AFF300802078000627
:1008400002D50220BDE8F0870120FBE701694A1CC0
:1008500002610878704700B58FB0CDE90131002101
:10086000059105497944CDE9031011466846FFF723
:10087000E3FC0FB000BD0000E5FFFFFF0A6802F8CF
:10088000010B0A60704710B5436913B1AFF30080E4
:1008900001E0FFF705FD012010BD127800F12401F1
:1008A0000A7000224A700122EDE711684FF0FF3212
:1008B000E9E70000074B70B50D467B44FFF7CBFF1F
:1008C0000446284600F032FA10B14FF0FF3070BDF8
:1008D000204670BDEF1B00003A2800D2303820F0CF
:1008E0002002412A01D3A2F13700884201D34FF000
:1008F000FF30704702681144137801601846704752
:10090000D16005497944516104497944116200215B
:100910001161114600F050B8EDFFFFFF9700000095
:10092000426842B1016811F8013B23B1521EC0E98F
:100930000012184670470121C160881E7047426846
:100940005AB1C368016843B983688B4205D0491E18
:10095000521CC0E90012002070474FF0FF30704772
:100960002DE9F04115460E46040002D12C6804B969
:100970000BA4204600F076FB0444207870B1274693
:100980003146384600F05EFB0444207810B1002068
:1009900004F8010B38462C60BDE8F0810027F9E728
:1009A0000000000010B5044600F090FB0068005DF8
:1009B00000F0010010BD00002DE9F34F4FF0000AD8
:1009C0000C4656468DB001200C9001F10C000B90A6
:1009D00062690B9801219047051E2DD0252D2CD042
:1009E000216A8847C0B162690B9801219047216A4A
:1009F00088470028F7D16269411E0B98904700E0B4
:100A0000761CA1690D988847216A88470028F7D18C
:100A1000E1690D988847DBE7A1690D988847A842EE
:100A2000074601D1761CD3E7E1690D9888477F1C02
:100A300002D1BAF1000F6FD06CE162690B98002708
:100A40003D46394690472A2804D162690B98012116
:100A500090470125DFF8D08262690B980121904709
:100A6000A0F130010A290AD24745E5DC07EB8701EE
:100A700000EB4107303FDFD445F01005ECE7E90615
:100A800001D46FF000476C280AD04C2814D0682895
:100A900015D06A280DD074281CD07A281AD01DE0F1
:100AA00062690B98012190476C2802D045F004053B
:100AB00014E045F002050DE045F020050AE062690A
:100AC0000B9801219047682802D045F0080505E001
:100AD00045F4006562690B9801219047C4E901570C
:100AE00065283DD019DC58287AD00CDC452837D051
:100AF00004DC252826D041289ED131E046282FD07D
:100B0000472899D12CE05B2877D0612828D063282A
:100B10007CD0642823D15AE0F7E06F2848D008DC65
:100B200066281DD067281BD0692821D06E2816D1D1
:100B300027E0702845D0732868D0752847D07828DA
:100B40000DD14DE0A1690D988847252805463FF451
:100B500069AFE1690D9888476D1C3FF46AAFD9E031
:100B60000D9923466A466FF00100AFF30080C6E09E
:100B700045F0400023464FF000026060A80736D4DD
:100B80003EE0E8077FF447AF2068011D2160006860
:100B9000290501D506701BE7290701D5068017E74F
:100BA000A90703D5F117C0E9006111E706600FE757
:100BB00045F0400023464FF008026060A80716D4B5
:100BC0001EE040F60E0125EA0100606016E045F0E7
:100BD000400023464FF00A026060A80707D40FE0E8
:100BE00045F040006060A80708D5234610220D9903
:100BF0006FF00100AFF3008081E007E01022234690
:100C00000D996FF00100FFF7CFFB78E04FF000097E
:100C100063284F46C8464B46CB4602D05B2807D0D8
:100C200039E02079C00601D40120A060012732E01C
:100C30006269D4F80CB00B98012190475E2807D167
:100C40004FF0010949466269D4F80CB00B989047FF
:100C5000216939B900210A4603AB43F82120491C18
:100C60000829FADBD8B3216949B308F101086269A0
:100C70000B98012190475D28F4D1B9F1000F09D0FC
:100C8000002003A951F82020D24341F82020401C25
:100C90000828F7DB03AB2069002820794FEA407071
:100CA0001ED05B462246CDF80080CDE901970D9914
:100CB00000286FF0010020DAAFF300801FE0C117B9
:100CC00003AA00EBD1614B1121F01F0102EB83025B
:100CD000411A13680120884003431360C7E719E0F5
:100CE0000D99224600286FF00100009702DAAFF359
:100CF000008004E0AFF3008001E0AFF30080002843
:100D00000ADA401C06D10C9820B14FF0FF300FB02A
:100D1000BDE8F08F5046FAE7E90701D10AF1010A70
:100D2000064400200C9053E6CCCCCC0C007B00F0A9
:100D3000800070472DE9F04705460C46C86820F44E
:100D4000201040F48000C860800602D5084600F0FC
:100D500096FAE06841F282014FF0FF390140022922
:100D600003D0204600F034FAB5E000F42041B1F59C
:100D7000004F0FD1C00306D56168E06A884200D8F1
:100D80000846606006E02069E0626060606901F02A
:100D9000CEFAA061A0680022EEB200280DDAE16868
:100DA0008B050AD4C043A06041F490302260E0601B
:100DB0006068411C61600670A5E0E06890462260B2
:100DC00040F40050E060206968BB606901F0B5FA4A
:100DD000012704F12405A0B1A08910F4407F08D0B8
:100DE000E06900F07BF9206118B1E06840F4006030
:100DF00016E0E7612561E06820F4407040F480600F
:100E00000EE0E06900F06AF900282061F1D0E068A6
:100E100040F4006010F4407FE06002D140F4807044
:100E2000E06020696060E06825696FF0010AC10533
:100E30001FD56168E06A884200D80846411B04D08B
:100E40002246284600F0CEF9F0BBE068010203D547
:100E5000E562C4E9015854E0691CE1626160E1693E
:100E600040F48030491EC4E9021030462E70BDE8BF
:100E7000F087010202D500F480320AE06068411C6C
:100E800061600670E0680A2E40F48030E06006D0B1
:100E90000022E16A6068814203D90B4602E0012228
:100EA000F7E70346A7895B1B7F0503D4E7699F42E9
:100EB00000DDE2B1814200D80146E5620F1AC4E9C3
:100EC0000158002B09DD00E005E0224619462846BE
:100ED00000F088F908B14846C9E747B1A069E56262
:100EE0006560C01BA061E06840F01000E060E06851
:100EF000000208D56168A069E562491B0844656085
:100F0000A0615046B3E73046B1E7000010B5424853
:100F10005421FFF7D7FB41485421FFF7D3FB40484A
:100F20005421FFF7CFFB3F493B483C4A3F4B086009
:100F30003D490A603A491960531C0365481C106515
:100F4000012008653B48344A39A1784400F0B8F9DB
:100F500020B9384878440A3800F057FA37482F4A01
:100F600035A1784400F0ACF920B9344878440A3807
:100F700000F04BFA32482A4A2FA1784400F0A0F939
:100F800020B92F4878440A3800F03FFA402322481D
:100F9000DC000021224600F0F7F820B12548784413
:100FA000543800F032FA1D4822464023002100F058
:100FB000EBF820B121487844543800F026FA18485C
:100FC00022461023002100F0DFF8002806D01C483C
:100FD0007844BDE81040563800F017BA10BD1048EC
:100FE00070B5006D20F001040B4800F0DFF90B48EC
:100FF00000F0DCF90A4800F0D9F909E0206D20F092
:101000000105204600F0D2F9204600F096F82C4663
:10101000002CF3D170BD0000F4050020480600202C
:101020009C060020E0000020E4000020E8000020F2
:10103000720000000A1C000077000000F91B00008D
:10104000E91B000030B503461D781DB10A4603E0D8
:10105000AC4201D1181A30BD12F8014B002CF7D167
:101060005B1CF1E730B503461D783DB10A4612F826
:10107000014B1CB1AC42FAD15B1CF5E7181A30BD2C
:10108000754600F0C9F9AE4605006946534620F0A2
:101090000700854618B020B5FFF79CF8BDE8204052
:1010A0004FF000064FF000074FF000084FF0000B24
:1010B00021F00701AC46ACE8C009ACE8C009ACE8D7
:1010C000C009ACE8C0098D467047000010B500F0BB
:1010D000ABF9001D10BD00BF9D19000070B506469C
:1010E00000F09EF9056806F10B0020F00704B442F9
:1010F0009CBF002070BD2B466A68BAB11068A04240
:1011000010D304F1080188423CBF5068586007D3EF
:101110005168101941601168091B01605860146022
:10112000101D70BD13465268002AE7D1214628469B
:1011300000F082F90028DED170BD70B50446051FAD
:1011400000F06EF90068002C14BF446870BD002CDC
:1011500018BFAC423CBF20466468F8D301680A1847
:10116000AA4218BF456003D12A68054611440160B0
:1011700028684119A1421CBF6C6070BD616869603C
:1011800021680844286070BD70B5C468A50713D0F5
:10119000650211D4B2F5807F09D0B2F5007F06D088
:1011A000B2F5806F08D1012300F1240106E05D1E35
:1011B0006FF07F46B54201D3012070BD0161C3616C
:1011C000416024F470611143C160002070BD0000D3
:1011D000C16821F4001141F08001C16000218160EB
:1011E000016070472DE9F047814614460E464FF0E6
:1011F000FF383248D5685769054209D03846A16999
:1012000001F0D6F8002811DB2C48C0430540E5600A
:101210002B4632464946384601F0CDF8A16920F008
:101220000042B21A11440028A16103D02046FFF702
:10123000CFFF4046BDE8F08770B504460569C06A37
:101240006168884200D80846E16821F42011E16015
:10125000C90312D5A84208D02246411B2846FFF7F1
:10126000C1FF10B14FF0FF3070BD0020E562C4E94E
:101270000150E06820F48030E060002070BD10B5BF
:101280000446C06820F02000E060A16AA06988429E
:101290000DD02046FFF7D0FFE06820F4405040F02A
:1012A0001000E060A06AA0612069E062606044F222
:1012B0004001E0688843E06010BD000010000200BB
:1012C0002DE9F0410C4607461646104600F06EF830
:1012D0002078611C61280AD0722802D077283CD17E
:1012E00002E00125002405E00225042402E0082490
:1012F00048F2020511F8010B2B2806D0622809D00C
:1013000011F8010C74280AD00BE045F0030544F0F5
:101310000204EFE745F0040544F00104EAE744F075
:1013200010043846214601F015F8411C15D0002163
:10133000316171604FF40071F560F16170612007F7
:1013400004D530460222002100F0C0F8306D40F094
:10135000010030653046BDE8F0810020FBE72DE953
:10136000F0410D460646104C206DC10704D04108DF
:1013700004D020F00104F7E722460EE05420FFF7E6
:10138000ADFE07000ED0206D47F001010843542147
:1013900020653846FFF796F93A4629463046BDE8BB
:1013A000F0418DE70020D6E7F40500202DE9F04755
:1013B00004464FF000094FF0FF37C568D4E90486B2
:1013C000A80707D02046FFF737FF304600F0A3FFFD
:1013D000002802DA3846BDE8F087280502D54046E5
:1013E000FFF7ABFE4C212046FFF76CF9206D20F093
:1013F000010020654846EEE710B50446AFF30080D3
:101400002046BDE81040FEF7D1BE10B500F0E0F870
:10141000BDE8104000F0D6B800487047F006002044
:1014200000487047F8060020004870471007002069
:10143000704770477047704738B504460A46002029
:101440006946AFF30080002808BF38BD0246009906
:10145000204600F0DDF8012038BD012000F02CB955
:10146000F8B5AFF30080054600200C46102000BF01
:101470000646A819A0420DD9324669460020AFF3AE
:101480000080070008BF00F017F90098A04218BFBD
:101490000546C419FFF7C4FF05600746F01D20F09C
:1014A00007004619284600F00AF8B44208BFF8BD04
:1014B000A21B31463868BDE8F84000F0A9B8002109
:1014C0000160C0E901107047102070472DE9F0411C
:1014D000044616460D464769007B80072ED03846E5
:1014E00000F02BFF50BB3EB3012E02D0022E25D1BF
:1014F00004E0204600F0A6F805441DE0384600F060
:1015000016FFE168002841F01001E16005DA20468D
:10151000FFF75EFE0120BDE8F081C9030BD56268CC
:10152000E16A914200D81146A26911442269891AE0
:10153000814200DD08460544002D01DA0220EAE779
:10154000E16A6068E268814206D29103E06203D5F5
:1015500022F4003141F01002A6690027AE4213DCEC
:10156000E16A814201D90B4600E0034603EB060C19
:101570002369ACEB030CAC4506DD814201D98C46F6
:1015800000E084469C4505D1A760276042F020001A
:10159000A5620DE0AD1BE669AE1B8142A66000D9D5
:1015A0000846C01A281A20605819606022F02000EE
:1015B00003490840E060002084F84870ABE7000071
:1015C000BFCFD7FF002801D000F01CB87047000043
:1015D00010B5014602A000F056F8012010BD000031
:1015E00053494752545245443A20526564697265E2
:1015F00063743A2063616E2774206F70656E3A20C1
:101600000000000001491820ABBEFEE726000200E2
:10161000034640688C46002818BF88423CBF0346FA
:101620004068F8D318681844884207D00CF10300CA
:1016300020F00700001D411A521A0146081D0A60D9
:10164000FFF77BBD10B50146C268900703D0900636
:1016500007D5886A0AE000F03FF801210160881E82
:1016600010BD8B69486818440B69C01A91F848305E
:101670001BB191F84910401A10BD1103FCD5002888
:10168000FADD401E10BD70B505460C460A2000E08C
:101690006D1C00F018F835B128780028F8D102E068
:1016A000641C00F010F814B120780028F8D1BDE8CF
:1016B00070400A2000F007B810B500F011F8BDE83E
:1016C0001040FFF77FBF08B569468DF80000032082
:1016D000ABBE08BD7047000000487047F006002010
:1016E00010B5012805D0002103A0FFF7CCFF012091
:1016F00010BD09A1F8E7000053494752544D454D2C
:101700003A204F7574206F662068656170206D65A2
:101710006D6F7279000000003A2048656170206D9D
:10172000656D6F727920636F727275707465640095
:10173000FEE77047FEE70000044908B5CA690243A6
:10174000CA61C9690140009108BD00000010024053
:10175000044908B58A6902438A6189690140009198
:1017600008BD000000100240044908B58A69024320
:101770008A6189690140009108BD000000100240A3
:10178000044908B58A6902438A6189690140009168
:1017900008BD000000100240F0B50A68C2F30F2532
:1017A00095FAA5F2B2FA82F369E001229A402A4240
:1017B00064D0082B03D240F201129A4006E0A3F154
:1017C00008024FF00114944044F080624C68082CE9
:1017D0000BD10C69C668170A97FAA7F7B7FA87F70B
:1017E00026EA1226BC402643C66092FAA2F700EB16
:1017F0001264B7FA87F74FEA870C0F27266807FAB3
:101800000CF7BE4392FAA2F7D1F804E0B7FA87F7D3
:10181000BF000EFA07FE46EA0E0626604F68012F4B
:1018200001D0092F2AD192FAA2F7B7FA87F74FEA27
:10183000870C032707FA0CF7BE4392FAA2F7B7FA10
:1018400087F7D1F808E0BF000EFA07FE92FAA2FC73
:1018500046EA0E06BCFA8CFC4FEA8C0E4FF0040CE4
:1018600026600CFA0EFC92FAA2F2B2FA82F2CF686B
:10187000920026EA0C0697403E4326605B1C35FA30
:1018800003F292D10020F0BD4FF47A71B0FBF1F178
:101890004FF0E020491E4161002181610521016175
:1018A000704700B5034600F055FC186000F028FCB6
:1018B000586000F033FC9860586800F03DFCD86038
:1018C00000BD00000149086070470000D8000020FA
:1018D000F0B50268154B164C164D4FF080469842F5
:1018E00005D0B04203D0A04201D0A84203D14F6836
:1018F00022F070023A43984205D0B04203D0A04291
:1019000001D0A84203D1CC6822F440722243026085
:101910008A68C2620A888262984201D109690163B9
:10192000416941F0010141610020F0BD002C0140FE
:101930000004004000080040012919D0042919D0F2
:10194000102919D0402919D0B1F5807F18D0B1F5F0
:10195000806F17D006210C4A1830525C1044026880
:10196000094BDB1D5B5C082199408A43026070478C
:101970000021F0E70121EEE70221ECE70321EAE78D
:101980000421E8E70521E6E7A02A0008012919D08B
:10199000042919D0102919D0402919D0B1F5807F18
:1019A00018D0B1F5806F17D006210C4A1830525C60
:1019B00010440268094BDB1D5B5C042199400A431B
:1019C000026070470021F0E70121EEE70221ECE719
:1019D0000321EAE70421E8E70521E6E7A02A000859
:1019E000012919D0042919D0102919D0402919D05A
:1019F000B1F5807F18D0B1F5806F17D006210C4A61
:101A00001830525C10440268094BDB1D5B5C0821F6
:101A100099400A43026070470021F0E70121EEE798
:101A20000221ECE70321EAE70421E8E70521E6E7E4
:101A3000A02A0008F0B501250023604C012908D038
:101A4000102933D0B1F5807F64D0B1F5805F5FD1CC
:101A500090E0016A21F001010162016A456886692E
:101A6000176826F073063E43176921F002013943D7
:101A7000576821F001013943A04212D1546921F085
:101A8000080141EA8401946821F0040141EA8401DB
:101A900025F4807495692C43D56924F4007444EAD4
:101AA000450545608661D26842632FE0016A21F0F6
:101AB00010010162016A45688669176826F4E646E6
:101AC00046EA0726176921F0200141EA0711576805
:101AD00021F0100141EA0711A04213D1546921F00D
:101AE000800141EA8411946821F0400141EA8411A7
:101AF00025F48064956944EA8504D56924F400647A
:101B000044EAC50545608661D268826301621D466C
:101B10002846F0BD016A21F480710162016A4568BE
:101B2000C669176826F073063E43176921F40071F1
:101B300041EA0721576821F4807141EA0721A04258
:101B400013D1546921F4006141EA8421946821F49D
:101B5000806141EA842125F48054956944EA0514A2
:101B6000D56924F4005444EA45154560C661D2683D
:101B7000C263CBE7016A21F480510162056A4168C2
:101B8000C669176826F4E64646EA0726176925F46B
:101B9000005545EA0735576825F4805545EA07356D
:101BA000A04204D1946921F4804141EA841141604A
:101BB000C661D16801640562A9E70000002C0140FC
:101BC0002DE9FF410446C0680D460126C0F34030B0
:101BD000F0BBE9686868E2680843296941F20C6370
:101BE0009A4311430843E060A868216921F44051F9
:101BF000014321616869616921F4407101436161B8
:101C00006846FFF74EFE2448844201D1039806E05F
:101C10002248844202D02248844238D10298B8B186
:101C20002A68AAB100EBC00101EB00119200B1FBE0
:101C3000F2F36420B3FBF0F3B1FBF2F56FF0180799
:101C40007B43002605EB8305322303EB051500E0FB
:101C50001DE0B1FBF2F7B5FBF0F5B7FBF0F705F0CF
:101C6000F00505EB0715B1FBF2F7B1FBF2F1B1FBA3
:101C7000F0F16FF01802514307EB810103EB011102
:101C8000B1FBF0F000F00F00284480B2A06004B077
:101C90003046BDE8F08100000038014000440040BB
:101CA0000048004008B54FF0E0210A690092421C4C
:101CB00000D0401C0A69D20300D5401E0028F9D18B
:101CC00008BD000000B585B014216846FEF7FAFC97
:101CD0002020FFF73DFD0820FFF73AFD0420FFF725
:101CE00037FD09484FF40051416120214161074906
:101CF0000091012101910221029100210391694685
:101D0000FFF74AFD05B000BD000C01402020200473
:101D100030B593B0142108A8FEF7D4FC2021684602
:101D2000FEF7D0FC14210DA8FEF7CCFC0120FFF734
:101D300003FD4720ADF8200044F620600025CDE9E2
:101D40000950440608A920460B95FFF7C1FD2068FD
:101D500020F080002060A06844F207018843A06062
:101D600010212046FFF73CFE6020CDE9000540F23F
:101D7000DC50CDE902506A46102120460495FFF759
:101D800059FE10212046FFF701FE606820F0700028
:101D90006060A06820F08000A06010212046FFF75E
:101DA000CBFD206840F001002060206A40F0100068
:101DB00020620820FFF7D8FC40F608000D900920AB
:101DC0000E900220CDE90F050DA90648FFF7E4FCAF
:101DD00005484168054A21F400711143416013B080
:101DE00030BD0000000C0140000001400001000770
:101DF00030B593B0142108A8FEF764FC2021684692
:101E0000FEF760FC14210DA8FEF75CFC0220FFF732
:101E100093FC4720ADF82000002544F62060CDE972
:101E20000950284C08A920460B95FFF751FD206862
:101E300020F080002060A06844F207018843A06081
:101E400001212046FFF7CCFD6020CDE9000540F2DE
:101E5000DC50CDE902506A46012120460495FFF787
:101E6000E9FD01212046FFF791FD606820F0700038
:101E70006060A06820F08000A06001212046FFF78C
:101E80005BFD206840F001002060206A40F0010006
:101E900020620820FFF768FC41F210000D90092035
:101EA0000E900220CDE90F050DA90748FFF774FC3D
:101EB00006484168064A21F480611143416013B02D
:101EC00030BD000000040040000C01400000014053
:101ED00000080007F0B593B0142108A8FEF7F2FB44
:101EE00020216846FEF7EEFB14210DA8FEF7EAFB61
:101EF0000420FFF721FC4720ADF82000002544F620
:101F00002060CDE909503F4C08A920460B95FFF70A
:101F1000DFFC206820F080002060A06844F2070108
:101F20008843A06001212046FFF75AFD6020CDE9DB
:101F3000000540F2DC50CDE902506A4601212046FE
:101F40000495FFF777FD01212046FFF71FFD1021C3
:101F50002046FFF745FD6A4610212046FFF76AFD3F
:101F600010212046FFF712FDA61531462046FFF747
:101F700037FD6A4631462046FFF75CFD3146204674
:101F8000FFF704FDA71439462046FFF729FD6A46EE
:101F900039462046FFF74EFD39462046FFF7F6FC4E
:101FA000606820F070006060A06820F08000A06091
:101FB00001212046FFF7C0FC10212046FFF7BCFCA2
:101FC00031462046FFF7B8FC39462046FFF7B4FCFF
:101FD000206840F001002060216A41F211100143A5
:101FE00021620820FFF7C0FB07480D9009200E90E2
:101FF0000220CDE90F050DA90448FFF7CDFB13B072
:10200000F0BD000000080040C3C00304000C014004
:1020100030B58DB01C216846FEF754FB142107A88B
:10202000FEF750FB4FF48040FFF7AAFB0420FFF7B8
:10203000A7FB2A4807900920089003200024CDE937
:102040000904274D07A92846FFF7A6FB2548079056
:102050000420089007A92846FFF79EFB2248006845
:10206000C0F30220011D072901D2002000E0C01E9C
:1020700004FA00F108011D4981F800041B492020E1
:102080002139C1F800014FF4E130CDE900040C2002
:102090000294CDE9034005940694154C6946204608
:1020A000FFF78EFD54F8100F20F4904001C4206813
:1020B00020F02A0044F80809206840F4005020600D
:1020C00054E8000F40F0200044E800010029F7D157
:1020D000084800F0E7F90DB030BD0000020002042E
:1020E00000080140040004040CED00E025E000E0DD
:1020F00000380140EC010020FEE7FEE770470000D9
:1021000004494968044A01F0F0010909515CC840DA
:102110007047000000100240402B00080449496845
:10212000044A01F4E06102EB11210978C8407047CC
:1021300000100240502B000804494968044A01F489
:10214000605102EBD1210978C8407047001002406D
:10215000502B00080648406810F00C01054805D0D7
:10216000042903D0082901D100F006B87047000007
:102170000010024000127A000B48416811F48032CE
:102180000A4909D0B2F5803F06D14168084AC1F337
:102190004041491CB2FBF1F14068022200F470108A
:1021A00002EB9040484370470010024000093D0098
:1021B00000127A0070477047234810B5016821F07B
:1021C000070141F002010160016801F007010229E5
:1021D000FAD11E48016841F4803101600168C1F301
:1021E00040410029FAD0416821F47C1141F4E81102
:1021F0004160016841F0807101600168C1F3406194
:102200000029FAD0416821F0F0014160416821F4D1
:10221000E06141F480614160416821F460514160B6
:10222000416821F0030141F002014160416801F081
:102230000C010829FAD1064C2046FFF725FB204661
:10224000BDE81040FFF73EBB0020024000100240F6
:1022500000A24A047047000070B51C480168C1F331
:102260004011002914D0C168C1F3401100290FD0DA
:102270004068174AC0B2174C0A280AD00D2808D067
:1022800061887F2904D261880A44491C61801070EA
:1022900070BD60880028FBD0608800250EA1155411
:1022A0000B48FEF737FA012638B1094901F18000E1
:1022B000FEF73CF92670658070BD094806706580A0
:1022C000BDE8704007A0FEF715B9000000380140D6
:1022D000EC0000200000002073746F70000000000C
:1022E0000400002053544F5020434D442052454396
:1022F00056000000FEE70907090E002804DB00F184
:10230000E02080F80014704700F00F0000F1E0209A
:1023100080F8141D70476FF40041401804D0012864
:1023200003D0022801D008147047002070476FF4D2
:102330000041401800D0002070476FF40041401861
:1023400005D0012802D0022801D0002070470120CA
:102350007047000070B504004FF0FF3511D02078B1
:102360003A280ED10CA12046FEF7D4F958B10CA1A1
:102370002046FEF7CFF948B10BA12046FEF7CAF977
:1023800038B1284670BD48F2010070BD48F2020025
:1023900070BD48F2030070BD3A535444494E0000EA
:1023A0003A5354444F5554003A5354444552520002
:1023B0004FF0FF30704770B50D466FF40041411883
:1023C00014464FF0FF300CD0012902D0022908D169
:1023D00006E02CB115F8010B00F03AFB641EF8E79B
:1023E000002070BDC0EBC0020B4810B500EB8200AE
:1023F000C2898A4200D91146038A8B4200D219460B
:1024000084894089241A9B1A05D0891A6143B1FB3B
:10241000F3F1084480B210BD0800002070B50446F6
:1024200001460FA0FDF7E8FE3CB112A0FDF7E4FE67
:10243000BDE8704013A0FEF75DB80A25154E0024D4
:10244000214615A0FDF7D8FE56F82400022100F021
:1024500001F90220FFF726FC641CAC42F0DBE7E741
:10246000457865637574696E67207461736B3A2093
:1024700025640A00556E6B6E6F776E207461736B06
:102480002E0A00005461736B2066696E697368657B
:10249000642E0000B0000020537465702025642E67
:1024A0002E2E0A0000210160416070478A68002AD0
:1024B00001DCFEF73FBC521E8A604A68C0B2531C62
:1024C0004B601070704700003D4808B5816941F0CD
:1024D00001018161816901F001010091C16941F04F
:1024E0008051C161C06900F080500090354801689A
:1024F0004FF6FF021140344A41F44071114301602C
:102500000068C0F30220C0F10701042900D90421AA
:10251000021D072A01D2002000E0C01E01228A40CD
:10252000521E02F00F0181400024601EFFF7E3FEFF
:102530002648416821F0E06141F080614160FFF789
:102540003BFEFFF7BFFBFFF763FDFFF751FCFFF713
:10255000DFFBFFF7BFFC1E4850E8001F41F02001E1
:1025600040E80012002AF7D100212520FFF7C3FE22
:1025700018492020C1F8000100F03AFA4FF4FA752A
:102580002846FFF78FFB00F0A1F92846FFF78AFBEA
:1025900011A0FDF7AFFF17A0FDF7ACFF20A0FDF7DE
:1025A000A9FF22A0FDF7A6FF25A0FDF7A3FF274D59
:1025B00028780028FCD02C70254800F077F8F7E741
:1025C000001002400CED00E00000FA0500000140A0
:1025D0000C38014004E000E0536572766F20636FB1
:1025E0006E74726F6C2073797374656D207265619F
:1025F00064792E004D414E55414C3A2069643A6150
:102600006E676C653A64656C61792C69643A616ED9
:10261000676C653A64656C61792E2E2E00000000AF
:1026200053544F503A2073746F7000004155544F0B
:102630003A2072756E203C7461736B5F69643E0072
:10264000424545503A206265657000000000002058
:102650006C01002070B5A6B00D460646802101A889
:10266000FEF730F80024009536F8143022460BA10E
:1026700021A8FDF7CDFD21A901A8FDF7E5FF052C57
:1026800003DA09A101A8FDF7DFFF641C062CEADBD1
:1026900001A800F06BF826B070BD000025643A2553
:1026A000643A2564000000002C00000038B50446A0
:1026B000FDF760FF00282DD019A12046FEF72AF86B
:1026C00070B1042218A12046FDF773FFB8B121466E
:1026D00017A0FDF791FD2046BDE8384000F046B850
:1026E00017A0FDF789FD194D20242C61C820FFF7A4
:1026F000D9FA6C61BDE8384015A0FDF7FBBE6A460B
:1027000014A1201DFDF732FE0098022803D2C0B2AA
:10271000FFF784FE38BD10A0FDF76EFD38BD000048
:10272000626565700000000072756E200000000098
:102730004D414E55414C20434D443A2025730A00EB
:102740004245455020434D440A000000000C014022
:102750004F4B000025640000496E76616C6964206F
:102760007461736B2049442E0A0000001FB5017884
:10277000D1B11AA1FDF7D4FE01AC11E003AB02AA5E
:1027800017A10094FDF7F2FD019882B2039881B27F
:102790000298C0B200F01CF910A10020FDF7C0FEA5
:1027A0000028EBD100F092F8002403E014B10BA054
:1027B000FDF722FDE0B200F07BF8024621460BA0B7
:1027C000FDF71AFD641C062CF0DB0AA0FDF714FDD2
:1027D00004B009A0BDE81040FDF78CBE2C0000003D
:1027E00025643A25643A25640000000025643A25F2
:1027F000643A31000A0000004F4B00002DE9F0411F
:102800000546DDE906C0062D1DD2104FC5EBC506F5
:1028100007EB8604E2812382A4F80AC0A08100208D
:1028200020830120E0822846FFF7DCFDA082608241
:1028300001462081284600F00BF857F82600616811
:10284000026A0A430262BDE8F0810000080000202D
:1028500006281DD24FF4FA7340F6C412994201D2F1
:10286000194602E0914200D91146104AC0EBC0005F
:1028700002EB80035B68012B0BD0102B0DD0B3F55E
:10288000807F0ED0B3F5805F02D152F82000016442
:10289000704752F820004163704752F8200081636E
:1028A000704752F82000C163704700000800002004
:1028B000062801D3002070470349C0EBC00001EB9C
:1028C0008000008970470000080000202DE9F047D3
:1028D0001C4E0025A946357006F10408307880B1F9
:1028E00000204146C0EBC00201EB8202401C13896C
:1028F00093820628F6DB86F8009013A0FDF77CFC97
:102900001DE000274FEA0704C4EBC40108EB810077
:102910000189828A914209D0C08A012795FBF0F192
:1029200000FB115010B9E0B200F01EF8641C062C38
:10293000EADB27B10120FFF7B5F96D1CCEE7284689
:10294000BDE8F087040000204D6F76656D656E74FC
:102950002073746F7070656420627920636F6D6D91
:10296000616E642E0A000000062815D20B49C0EBE8
:10297000C00201EB82021189938A99420CD002D9DC
:10298000A1F1010101E001F101011181128B89B274
:10299000114489B2FFF75CBF7047000008000020B7
:1029A000062812D2C0EBC003084800EB830043891D
:1029B0008B4200D9194683898B4200D2194602B94D
:1029C0000122038943828182C2827047080000206D
:1029D00070B515460446062808D2FFF703FD0146E8
:1029E0002A462046BDE87040FFF7DABF70BD000000
:1029F000F0B58BB04FF487752422144902A8FDF777
:102A00002FFE00240DF1080604EB44004FF4FA6792
:102A100036F8102006EB4000438881884FF4FA60B6
:102A200050435F43B0FBF5F0B7FBF5F700F5FA70E4
:102A300007F5FA7780B2BFB2CDE90007E0B2FFF741
:102A4000DDFE641C062CDFDB0BB0F0BDB02A0008F5
:102A500000B50346C1B2024800F004F8184600BDB4
:102A6000003801400268C2F3C012002AFAD0416067
:102A70007047000010B500290AD00878002807D058
:102A800005487844FDF746FE002801D0002010BD1F
:102A90000248784410BD00000E010000060100004D
:102AA000000000000404040000080000000800000A
:102AB00000000E01BE003200D20082001400FA00B5
:102AC00082002800D20082002800D2008200640028
:102AD000AF008200BE00820082008200820082007D
:102AE000BE006E00B400960082006400BE00550077
:102AF000AF00BE0082006400BE005500AF00BE0003
:102B000082008C00BE006E00B400960082008C0033
:102B1000E6006E00B400960082008C00E6005500CE
:102B2000AF00BE0082008C00E6005500AF00BE0082
:102B300082006400BE008200820082008200820067
:102B4000000000000000000001020304060708095D
:102B500000000000010203043A535444494E003A75
:102B60005354444F5554003A535444455252000074
:102B7000A02C000800000020EC0000002801000844
:102B80008C2D0008EC000020640C000044010008BB
:102B90001001000043000000F8FFFFFF004040402C
:102BA0004040404040404141414141404040404020
:102BB00040404040404040404040404040050202CC
:102BC000020202020202020202020202022020208B
:102BD00020202020202020020202020202029090E7
:102BE00090909090101010101010101010101010E5
:102BF0001010101010101010020202020202888839
:102C00008888888808080808080808080808080844
:102C1000080808080808080802020202400000002C
:102C200000000000000000000000000000000000A4
:102C30000000000000000000000000000000000094
:102C40000000000000000000000000000000000084
:102C50000000000000000000000000000000000074
:102C60000000000000000000000000000000000064
:102C70000000000000000000000000000000000054
:102C80000000000000000000000000000000000044
:102C90000000000000000000000000000000000034
:102CA00000000000000000000000004010000000D4
:102CB0000000000000000000000000000000000014
:102CC00000000000000800400001000000000000BB
:102CD00000000000000000000000000000000000F4
:102CE000000800400010000000000000000000008C
:102CF000000000000000000000000000000800408C
:102D000001000000000000000000000000000000C2
:102D1000000000000000000000080040100000005B
:102D200000000000000000000000000000000000A3
:102D3000000000000004004001000000000000004E
:102D40000000000000000000000000000000000083
:102D5000D42A0008E02A0008EC2A0008F82A000813
:102D6000042B0008102B00081C2B0008282B00083F
:102D7000342B0008D42A000800127A00000000005A
:0C2D800000000000000000000000000047
:04000005080000ED02
:00000001FF
